:020000040000fa
:080000000002040000000000f2
:020000040000fa
:040008001e050000d1
:020000040000fa
:04000c00cc02000022
:020000040000fa
:04001000de0200000c
:020000040000fa
:04001400d402000012
:020000040000fa
:04001800e6020000fc
:020000040000fa
:04001c001e050000bd
:020000040000fa
:040020001e050000b9
:020000040000fa
:040024001e050000b5
:020000040000fa
:040028001e050000b1
:020000040000fa
:04002c001e050000ad
:020000040000fa
:040030001e050000a9
:020000040000fa
:04003400ee020000d8
:020000040000fa
:040038001e050000a1
:020000040000fa
:04003c001e0500009d
:020000040000fa
:040040001e05000099
:020000040000fa
:040044001e05000095
:020000040000fa
:040048001e05000091
:020000040000fa
:04004c001e0500008d
:020000040000fa
:040050001e05000089
:020000040000fa
:040054001e05000085
:020000040000fa
:040058001e05000081
:020000040000fa
:04005c00a2040000fa
:020000040000fa
:040060001e05000079
:020000040000fa
:040064001e05000075
:020000040000fa
:040068001e05000071
:020000040000fa
:04006c001e0500006d
:020000040000fa
:040070001e05000069
:020000040000fa
:040074001e05000065
:020000040000fa
:040078001e05000061
:020000040000fa
:04007c001e0500005d
:020000040000fa
:040080001e05000059
:020000040000fa
:040084001e05000055
:020000040000fa
:040088001e05000051
:020000040000fa
:04008c001e0500004d
:020000040000fa
:040090001e05000049
:020000040000fa
:040094001e05000045
:020000040000fa
:040098001e05000041
:020000040000fa
:04009c001e0500003d
:020000040000fa
:0400a00092030000c7
:020000040000fa
:0400a4001e05000035
:020000040000fa
:0400a8001e05000031
:020000040000fa
:0400ac001e0500002d
:020000040000fa
:0400b0001e05000029
:020000040000fa
:0400b4001e05000025
:020000040000fa
:0400b8001e05000021
:020000040000fa
:0400bc001e0500001d
:020000040000fa
:0400c0001e05000019
:020000040000fa
:0400c4001e05000015
:020000040000fa
:0400c8001e05000011
:020000040000fa
:0400cc001e0500000d
:020000040000fa
:0400d0001e05000009
:020000040000fa
:0400d4001e05000005
:020000040000fa
:0400d8001e05000001
:020000040000fa
:0400dc001e050000fd
:020000040000fa
:0400e0001e050000f9
:020000040000fa
:0400e4001e050000f5
:020000040000fa
:0400e8001e050000f1
:020000040000fa
:0400ec001e050000ed
:020000040000fa
:0400f0001e050000e9
:020000040000fa
:0400f4001e050000e5
:020000040000fa
:0400f8001e050000e1
:020000040000fa
:0400fc001e050000dd
:020000040000fa
:040100001e050000d8
:020000040000fa
:040104001e050000d4
:020000040000fa
:040108001e050000d0
:020000040000fa
:04010c001e050000cc
:020000040000fa
:040110001e050000c8
:020000040000fa
:040114001e050000c4
:020000040000fa
:040118001e050000c0
:020000040000fa
:04011c001e050000bc
:020000040000fa
:040120001e050000b8
:020000040000fa
:040124001e050000b4
:020000040000fa
:040128001e050000b0
:020000040000fa
:04012c007c03000050
:020000040000fa
:040130008603000042
:020000040000fa
:040134001e050000a4
:020000040000fa
:040138001e050000a0
:020000040000fa
:04013c001e0500009c
:020000040000fa
:040140001e05000098
:020000040000fa
:040144001e05000094
:020000040000fa
:040148001e05000090
:020000040000fa
:040208001e050000cf
:020000040000fa
:04020c001e050000cb
:020000040000fa
:040210001e050000c7
:020000040000fa
:040214001e050000c3
:020000040000fa
:040218001e050000bf
:020000040000fa
:04021c001e050000bb
:020000040000fa
:040220001e050000b7
:020000040000fa
:040224001e050000b3
:020000040000fa
:040228001e050000af
:020000040000fa
:04022c001e050000ab
:020000040000fa
:040230001e050000a7
:020000040000fa
:040234001e050000a3
:020000040000fa
:040238001e0500009f
:020000040000fa
:04023c001e0500009b
:020000040000fa
:040240001e05000097
:020000040000fa
:040244001e05000093
:020000040000fa
:040248001e0500008f
:020000040000fa
:04024c001e0500008b
:020000040000fa
:040250001e05000087
:020000040000fa
:040254001e05000083
:020000040000fa
:040258001e0500007f
:020000040000fa
:04025c001e0500007b
:020000040000fa
:040260001e05000077
:020000040000fa
:040264001e05000073
:020000040000fa
:040268001e0500006f
:020000040000fa
:04026c001e0500006b
:020000040000fa
:040270001e05000067
:020000040000fa
:040274001e05000063
:020000040000fa
:040278001e0500005f
:020000040000fa
:04027c001e0500005b
:020000040000fa
:040280001e05000057
:020000040000fa
:040284001e05000053
:020000040000fa
:040288001e0500004f
:020000040000fa
:04028c001e0500004b
:020000040000fa
:040290001e05000047
:020000040000fa
:040294001e05000043
:020000040000fa
:040298001e0500003f
:020000040000fa
:04029c001e0500003b
:020000040000fa
:0402a0001e05000037
:020000040000fa
:0402a4001e05000033
:020000040000fa
:0402a8001e0500002f
:020000040000fa
:0402ac001e0500002b
:020000040000fa
:0402b0001e05000027
:020000040000fa
:0402b4001e05000023
:020000040000fa
:0402b8001e0500001f
:020000040000fa
:0402bc001e0500001b
:020000040000fa
:0402c0001e05000017
:020000040000fa
:0402c4001e05000013
:020000040000fa
:0402c8001e0500000f
:020000040000fa
:0402cc001e0500000b
:020000040000fa
:0402d0001e05000007
:020000040000fa
:0402d4001e05000003
:020000040000fa
:0402d8001e050000ff
:020000040000fa
:0402dc001e050000fb
:020000040000fa
:0402e0001e050000f7
:020000040000fa
:0402e4001e050000f3
:020000040000fa
:0402e8001e050000ef
:020000040000fa
:0402ec001e050000eb
:020000040000fa
:0402f0001e050000e7
:020000040000fa
:0402f4001e050000e3
:020000040000fa
:0402f8001e050000df
:020000040000fa
:0402fc001e050000db
:020000040000fa
:040300001e050000d6
:020000040000fa
:040304001e050000d2
:020000040000fa
:040308001e050000ce
:020000040000fa
:04030c001e050000ca
:020000040000fa
:040310001e050000c6
:020000040000fa
:040314001e050000c2
:020000040000fa
:040318001e050000be
:020000040000fa
:04031c001e050000ba
:020000040000fa
:040320001e050000b6
:020000040000fa
:040324001e050000b2
:020000040000fa
:040328001e050000ae
:020000040000fa
:04032c001e050000aa
:020000040000fa
:040330001e050000a6
:020000040000fa
:040334001e050000a2
:020000040000fa
:040338001e0500009e
:020000040000fa
:04033c001e0500009a
:020000040000fa
:040340001e05000096
:020000040000fa
:040344001e05000092
:020000040000fa
:040348001e0500008e
:020000040000fa
:100400008fe620000e7f22000e0188000000000011
:10041000000020000000e000020032000001200087
:100420002002880014000700860107000000e00099
:1004300003003a00a029220001002000020037003a
:100440000000200001002000810f70000100320038
:1004500014000700000020000000e000020032004d
:10046000000002000000000004190200000000006b
:100470000040da000000fe004440a900403f200098
:100480000000e0000300320000002000a00188000e
:100490004440a800000006008a1f78008b1f7800e7
:1004a0000000060091018800800478000000eb0045
:1004b0001a003700e284440032a0b4009905ba0063
:1004c000e284440032a0b4009906ba00e2844400f9
:1004d00032a0b4000006eb00476fde00fd07b2005b
:1004e000636ce10003003a00ebff07000000eb0043
:1004f0000a003700606ce10004003a00005deb0088
:100500008b05e900fdff3e00040037006168e10053
:10051000010032000086eb000b00070019c7ba008b
:100520001905ba000e04e00003003a000a00e000da
:10053000e0ff3a0000000600fe07b2009e018800be
:100540008a047800f5ff3700395dba008b05e900b1
:100550000c003200295dba008b05e900080032006a
:100560000c00e00003003a00e284440032a0b40032
:10057000f5ff370019ddba008b05e900faff3a00f4
:100580008904e800e184440032a0b40000000600c1
:1005900000000000000000003600f8008020a900e4
:1005a0000000eb00401107003600f8004211070080
:1005b0008040a900100020003b1107003600f80021
:1005c0008060a90020002000371107003600f800e5
:1005d0008080a9003000200033110700809fbe00fa
:1005e000829fbe000000fa008460a90000408000e5
:1005f0001140800061004000e08048000040880019
:10060000114088002040800031408000610040009f
:10061000e080480020408800314088004040800051
:100620005140800061004000e08048004040880068
:1006300051408800604080007140800061004000af
:10064000e080480060408800714088008040800061
:100650009140800061004000e080480080408800b8
:10066000914088002242800033428000f0352e0005
:1006700061012000800f5100818f590006003e006b
:10068000204280003142800061004000e08048004c
:100690002042880031428800e04080000000e800ed
:1006a000e0408800e140800000e22400808f50009c
:1006b00002003a001a68ef003222a900714180005e
:1006c000f0702200808f500004003e0070418000d6
:1006d0000000e80070418800030037002e28ef007a
:1006e00010c0b30030e8b7000080fa004f01be0030
:1006f0004f00be00004006000000fa002222a900c0
:100700008c20a9000080fa00004006000000fa00da
:100710003222a9001a68ef008c40a9000080fa007c
:1007200000400600809fbe00821f78000400fa008f
:100730003222a90087c0a9007a0037001ac8bf007a
:100740000080fb00b11180000001400040e5200066
:1007500000004100010878001ac8bf000080fb00bb
:100760008000400040e5200000804000100078003c
:10077000a01188001ac8bf000040e8001ae8b700be
:100780001ac8bf00e14f500006003a00a172800075
:1007900010042000808f5000020032001a68ef0021
:1007a0005f0037001ac8bf00e74f50005c003a00f6
:1007b000a072800080407800b07280000040780015
:1007c00080c04000c07280000040780080c04000bf
:1007d000d07280000040780080c04000e07280004d
:1007e0000040780080c04000f07280000040780037
:1007f00000cf4000b172800040052000808f500083
:1008000046003a00c1728000b0022000808f500084
:1008100042003a00d172800000072000808f500013
:100820003e003a00e1728000d0032000808f50002b
:100830003a003a00017380001e80fb00808f500058
:1008400036003a00f1728000b0408000808f500086
:1008500030003200f0728000b0408800b14080006b
:10086000300220000088b90000007800c0408800f5
:10087000c04080008000d100b04721000008b800cf
:100880000100d100004078003ee8b7003ec8bf003c
:100890008080fb00200320000088b9000000780061
:1008a000100798009e009000f0182000808f5000e4
:1008b00002003e003e68ef00160037001e00900068
:1008c0000019b1008000d100b04721000008b80035
:1008d0000100d100004078000040e8003ee8b70089
:1008e000c14080001e00900000805000f90f5000b1
:1008f00008003600e183200091407800e0c3b30097
:1009000080cf500003003e003ec8bf000040e8001a
:100910003ee8b7004428ef004628ef001a68ef00d1
:100920001c28ef0090118000610060000000e000d2
:1009300082ff3a000080fa004f0178004f00be00ad
:1009400000400600809fbe00829fbe00849fbe00c4
:10095000869fbe000600fa0085a0a9000030200096
:10096000000f78001e00780010007800f01fb10022
:10097000004188002023a800004180006101b900e7
:1009800000418000cf80de00009ab90004027800a8
:10099000028bb90086027800050242000010b80000
:1009a0000102420084007800100798002107980097
:1009b00048c8bf000004e0001a0032001ec8bf0093
:1009c0000004e0000c00320012418000234180004e
:1009d0001e009000ae00900002004000838048009e
:1009e0001041880021418800304180000000e8006b
:1009f000304188000b0037004241800053418000a5
:100a00001e009000ae00900002004000838048006d
:100a10004041880051418800604180000000e800aa
:100a2000604188000080fa004f03be004f02be0004
:100a30004f01be004f00be00004006000040da003b
:100a40000000fe00000005000001be001b000700c2
:100a50000470a70003f0a10003f8a30013003a00fc
:100a60006509b10010003200090035006928e10075
:100a700002003500010028000000050000004000d1
:100a8000818048008502e900fcff3a000000060072
:100a9000f88f4200050035008100d1000080d300ae
:100aa0008502e800fcff3a00000006008000eb0031
:100ab000000005006011b80091003700c70ade0091
:100ac000f107b200f50fb20008003200e1cf42009a
:100ad000020032000170a00024000500810f7000a8
:100ae000010032000408050044000500810f700079
:100af00002003a00140005008502e90000004000f1
:100b000081c04800fcff3b000170a00024000500ec
:100b1000889fbe008a9fbe008c1f7800cd00070012
:100b2000d400330003866c006450e10024003200de
:100b30006420e100270032006150e1002200320011
:100b40006120e100210032008b854200eb07b100fb
:100b50000134b800003ab8000804420089844a0011
:100b6000013ab8000030b8008880400009014a000e
:100b70000400330000004000818048000201490069
:100b80008b05e900c909dd00830170000100320016
:100b900013002000c814de004814dd004709de0001
:100ba0001200b200c808de0008847000830007004d
:100bb00001f0a1000cf0a70001f0a000b600370082
:100bc0006120e100b80032000801be000200be0052
:100bd000f7ff37006150e100fcff3a00b200370038
:100be000889fbe008a9fbe008c1f78000004be0054
:100bf000b2ff07000478a30026003a006120e1005c
:100c00002500320009f8a30025003a006420e10025
:100c100021003200f507b1000508a30002003200f0
:100c200000004000818048006044b80003102000ac
:100c300002002000000040008180480008054400b8
:100c400089854c000a0541008b8549000a05500042
:100c50008b855800030033000a00be0002047400b4
:100c6000838474008301d1000281d300830f71005b
:100c7000f0ff3a008904d1000884d30060014900e4
:100c800082017800c1adde00fb07b0004b00070019
:100c9000810037000960a0000800be007e00370018
:100ca0001202200082428800f0ff2f00f1ff27008f
:100cb000790037006022b800060220000000d00052
:100cc0008180d2000482d2008582d2000000a00080
:100cd0000202520083825a000300310002024200e5
:100ce00083824a000000a1000603e900f3ff3a00f6
:100cf00000000600efff07000400be000000060031
:100d0000889fbe008a9fbe000082700004027100ae
:100d100004827100260032000004be000200be0002
:100d20006011b8006b092000950220000182cf00fd
:100d30000a0039000541b1000082cf0007003900e8
:100d40000541b1000982cf00040039000541b1001e
:100d50000882cf00010039000541b1000542520070
:100d6000120032000a003b008281710061016400c0
:100d70008100d1000080d3008984d3000884d3008f
:100d80008b05e8000442e800f7ff3a00070037004f
:100d90000804440089844c00000048008180480019
:100da0008b05e9000442e900f9ff3a00030007005f
:100db0004f05be004f04be00000006008100200069
:100dc000618055000b003d000b00200061fe2f00ec
:100dd0000100e1001d0034008281710061016400a6
:100de0008904d1000884d3000000e800faff3a002b
:100df00071002000610064000300700002006000c8
:100e00000900320061044400e0844c000988a50018
:100e1000050032008b05e8006808e10002003a0096
:100e20008904d1000884d300f20f20000258e100a9
:100e300005003d00c75ddd00f907b200898075003f
:100e400008007800000006000bf827008b007800ef
:100e5000000005000004be0018ff07000003be00ec
:100e60000405be000200be0014ff0700844f750099
:100e7000000006000200be006450e10005003600dc
:100e80006420e100020036000968a30001003a0076
:100e90000800be000160a0004f0678004f05be00ac
:100ea0004f04be0000000600f0ff2f00f1ff2700f6
:100eb000f9ff37008001780002003700815978007f
:100ec0000201e9000200e000fcff3a000000060019
:100ed000881f78000204780008017800d601070016
:100ee000080040004f047800000006000000fa00ef
:100ef000881f780000047800ea8157003fb9970006
:100f00008800780080762000070007000000e000dd
:100f1000020035008040eb00017478004f04780037
:100f20000080fa00000006006200fa00889fbe0000
:100f30008a1f780000057800810478000204780098
:100f40008300780080f92f000f004000b8030700ed
:100f50009a979f00a9979f000000eb00b09f9f0009
:100f60001885fb008a04fb000a05ea004f55de00e5
:100f700050022000808f54000d003200e10f550018
:100f80000b003a000a017800880078002f90970043
:100f90009f91970003000100a0979f000000e000d0
:100fa0008e0032003f9897000000e800b09f9f003d
:100fb0000a04440050022000808f540004003200d4
:100fc0000900e000e6ff3a003f98970084003700f0
:100fd0000000eb00909f9f00809f9f00f0979f0074
:100fe000e0979f00d0979f00c0979f0007003700b1
:100ff000e1e42000010050000000400021e4200056
:1010000061007800df98970001007000d09f9f007a
:101010008804780009047800384578008a00fb00cd
:10102000e0e420008b0107000000e000f0ff3a0040
:10103000a1c2b300814f55000e003a00cf8897003f
:101040000180e900c08f9f0010007800c09f9f00c2
:101050000000e00005003d000000ea00c09f9f0086
:101060005f9897000020a000d09f9f000904e8002f
:101070000f003700c09f9f000000eb000500370005
:10108000f2ff2700820f5000020032006a01b9000f
:10109000028040000904780088047800b900fb0051
:1010a0000103b100e98f5000f5ff3600c09f9f009b
:1010b000e0c2b300984f1000020032000080eb0045
:1010c00019003700a0c2b300d84f100007003a0043
:1010d000cf8897000180e900c08f9f001000780042
:1010e000a09f9f000804e800100037000000eb00fc
:1010f000a09f9f008800780005003700f3ff2700bd
:10110000830f5000020032006a02b900040041005f
:1011100001047800880078003101fb000203b1006f
:10112000e90f5100f5ff3600a09f9f00984478001a
:101130008900fb00a0e32000460107000000e0005a
:10114000020032000804e800010037008044eb0090
:10115000c97f9f0080c6b30080cf540004003a00ce
:1011600098cf14000a003a0066405000060037008d
:10117000c0c6b30080cf540005003a0098cf1400d9
:1011800003003a0065404000c07f9f000804e8006b
:101190001801fb00e3fb2f008f81410081f92f0034
:1011a0008f804000a0f92f000f00400010000700c2
:1011b0000000e00009003a00e1fb2f008f804000b2
:1011c000a0f92f000f0040005d0207000000e000c2
:1011d000020035000804e80061ff37000080eb00e2
:1011e0004f0578004f04be000080fa0000000600a2
:1011f000889fbe008a9fbe00e4c6b300844f5100a2
:10120000be00320010003c006b425200844f51007f
:101210001800320005003c0054c2b300844f510056
:10122000f600320084c5b3000f00370044c6b30097
:10123000844f51001400320065424200844f510037
:10124000f1003a001000370004c7b300844f51008a
:10125000dd0032005600350065424200844f5100e7
:101260005300320063424200844f5100e6003a00ce
:101270004f0037001181e90082087800f0009000eb
:1012800012417800de00370020629000c5c6b3002e
:10129000854f520007003a009102780064825200a4
:1012a000840878001402be004fabde00860378008d
:1012b0001400370015c7b300854f520003003a00f1
:1012c000110478006802540005003700a5c6b30079
:1012d000854f520006003a0091047800688254005d
:1012e000840878005403be004402be0005003700a5
:1012f0001182e9008408780014027800cfa2de0091
:10130000612bb9000498be000690be00a06090005a
:1013100088c6b30088cf50000d00320028c6b30045
:1013200088cf500004003a000402fb00cfa2de0088
:10133000612bb9000800370048c7b30088cf5000c0
:10134000030032006644440088cf500004003a0095
:10135000cfa2de00612bb9000498be000690be004b
:101360003002be002003be00f0009000e00f5200eb
:10137000e08f5a00e00f5b00e08f5b0002003d0051
:10138000d4c2b30008003700001290000418a30074
:1013900002003200b4c2b300030037000408a30007
:1013a0005100320004c2b30084f178004c003700d1
:1013b00020629000c5c6b300854f520008003a0075
:1013c0001105780064025500840878001404be00fa
:1013d0006055b8000802be000a03be0014003700c2
:1013e00015c7b300854f520003003a0091047800fe
:1013f0006882540005003700a5c6b300854f52002f
:1014000006003a001105780068025500840878004b
:101410005403be004402be00050037001182e900fb
:1014200084087800140278008002eb006033b80072
:101430000498be000690be00a060900088c6b3006d
:1014400088cf50000d00320028c6b30088cf50006e
:1014500004003a000482fb008002eb006033b80015
:101460000800370048c7b30088cf5000030032009f
:101470006644440088cf500004003a008002eb002c
:101480006033b8000498be000690be008010900043
:101490000138a300140032003002be002003be0059
:1014a000e00f5200e08f5a00e00f5b00e08f5b001e
:1014b0000d00320081c7b300814f5100030032009c
:1014c00081c5b300814f510007003a00f000900041
:1014d00004c3b30084f178008100e80082f1780051
:1014e0008100e80071009800f000900081814100c7
:1014f00063009800824078003e003700a0619000b1
:10150000c4c6b3001181e90084cf5100220032002b
:101510000a003c006442520084cf51002500320092
:1015200004c2e80084cf5100130032006842520028
:1015300084cf51001e003a000a00370044c7b300b0
:1015400084cf51001b0032006642420084cf51001c
:10155000180032006942520084cf510014003a0052
:10156000050037008208780092007800405890000b
:10157000804878002c0037008208780092007800bc
:10158000600a9000cfa2de00612bb9008498be00f3
:101590008690be0024003700820878009200780010
:1015a00060099000cf91de008288be001e003700e7
:1015b0001181e900820878009200780060089000ac
:1015c00080087800180037001181e900820878004f
:1015d00012027800cfa2de00612bb9000498be0091
:1015e0000690be00f00090008181410063009800e9
:1015f00081c7b300230007000b003700f000900004
:1016000082f1780006003700f000900081814100ef
:101610000204e00001003a0052c2b300824978009f
:101620008100e800710098000000eb004f05be004b
:101630004f04be0000000600800178000200370061
:10164000b15978000201e9000200e000fcff3a0015
:1016500000000600020037000304e000060032002c
:101660000001780002007800b041780081cf51007d
:10167000f9ff3a00010037000001eb00020078009a
:1016800000000600fc874700889fbe008a9fbe00be
:101690008c9fbe008e1f78000006780080c5b300c6
:1016a00080cf50000a0032007740400080cf5000c9
:1016b0000a0032006940400080cf50000b00320029
:1016c00090de200080bf9f00ae0020000a0037009f
:1016d00082dd200082bf9f000600370093de2000dd
:1016e00083bf9f008e0020000300370094de20009f
:1016f00084bf9f000e0120003c02be002c03be00f0
:101700000605be000404be0040c6b30080cf5000f2
:10171000030032006540400080cf50000b003a00cb
:10172000e00f5200e08f5a00e00f5b00e08f5b009b
:1017300006003d006000b8006011b80004045000cd
:10174000858458000605590087855900e80f570021
:101750000400320040002000f00f570038003a002b
:101760000100370030002000e00f5400e08f5c00e3
:10177000e00f5d00e08f5d0004003a00dc0890009f
:101780008d0120000100e000060032008e00e9001b
:10179000888060008fba9700e5c07800f1ef9f0065
:1017a0007d012000800078008100e9000500330001
:1017b0008b05d1000a85d3008984d3000884d30027
:1017c000f9ff3700089ebe000a96be0012003700df
:1017d0008d06e9008e00e900848060000fb9970053
:1017e000e2c1780082fd2f000f01410003f17e006d
:1017f000800078008100e900050033008783d10074
:101800000683d3008582d3000482d300f9ff37001a
:10181000049ebe000696be003c02be002c03be0025
:10182000e00f5200e08f5a00e00f5b00e08f5b009a
:101830008b0034000d00e000e5ff3c00880037001d
:101840002c60900081c6b300814f50000b00320025
:1018500006003c000004e00008003200e6c0500032
:10186000814f50004e003a0004003700c1c6b3005b
:10187000814f50004a003a00210037000800e00084
:1018800004003a005c0890008d0120000000e00098
:1018900006003200110009000e84d8000fb997002d
:1018a000e2c07800f1ef9f007d01200011000900e7
:1018b0000e84d8000a003700110009000e04d80079
:1018c0008d06e9000e81b900020454008fb897001c
:1018d00061417c0081fd2f008f80400082f07e00fe
:1018e000000478000800e000020032000d00e00073
:1018f000f1ff3c00cfc4de00614db9002500370088
:10190000e00f5400e08f5c0004003a005c08900097
:101910008d0120000000e000070032006171b90075
:101920000800be00f3fc07008fb99700e341780080
:10193000f3ef9f007d0120006171b9000800be0037
:10194000dcfc07000b0037006171b9000800be0025
:10195000390107008d06e90000f1b90002045400c6
:101960000fba9700e4427c0084fd2f000f02420072
:1019700005f27e000004be00e00f5000e08f58002a
:10198000020032000d00e000efff3c004fcdde0012
:101990008a057800089ebe000a96be003000370017
:1019a000e00f5400e08f5c00e00f5d00e08f5d0011
:1019b00004003a005c0890008d0120000000e00067
:1019c000090032006172b900612bb9000800be0045
:1019d0000a01be00c70107000fba970064427800f1
:1019e000f4ef9f007d0120006172b900612bb90006
:1019f0000800be000a01be00b70107000d00370055
:101a00006172b900612bb9000800be000a01be0076
:101a1000bc0107008d06e90000f2b900040454007f
:101a20008fba970065427c0085fd2f008f824200af
:101a300084f27e00009ebe000296be003c04be0002
:101a40002c05be00e00f5400e08f5c00e00f5d004d
:101a5000e08f5d00020034000d00e000e8ff3c0074
:101a6000e80f570010003a000c1090000038a30057
:101a70000d003200f78f560006003e0085fd2f0056
:101a80008f824200e5c07e0000c3b30080cf5000cb
:101a9000050032008d06e90002c3b30081fd2f006e
:101aa0008f80400082f07e0078811600120e980030
:101ab0006c00900083fd2f008f8141008d804100dc
:101ac000ddfe07001c089000dc089000810f50002c
:101ad00006003d0000805000000e98000c109000a1
:101ae0000040a100001698000f0037000100e00040
:101af0000d003d008c109000f4806000f08f5000cd
:101b000009003a007c099000fc009000810051001f
:101b10000c09900082805000008050004240a900d3
:101b200001003400000e98004f0778004f06be00f9
:101b30004f05be004f04be00cf01b10000000600fb
:101b40000400fa00889fbe008a9fbe008c1f7800a8
:101b50000004780001067800f80d900078009000ed
:101b60008085550008089000808555001808900071
:101b70008085550028089000808555003808900021
:101b8000808555004808900080855500000222009d
:101b900090bf9f0000032300a0bf9f00081090008b
:101ba0000028a30015003a000b00e00013003400e9
:101bb0000b0578008a047800e20f5500010036001a
:101bc00029002000c801900009017800ee8057002c
:101bd0005800900003000100500498000000e0004d
:101be0008c0032006808900009004000600c9800ea
:101bf000090555004240a900eeff3c007801900025
:101c00000200e0000c003400c80190008c00780055
:101c10005800900003000100500498008080eb0001
:101c20000000e0007c003200e8089000780090009e
:101c300000804000600c9800880c90000900e000d3
:101c40001100340009057800e28f540001003600cd
:101c50002a002000c80190000a017800ec8057009b
:101c60005800900003000100500498000000e000bc
:101c700068003200680890000a004000600c98007c
:101c80008a845400edff3700180990000200e0003c
:101c90000c003400c8019000e8009000580090004b
:101ca00003000100500498008080eb000000e00079
:101cb00059003200e80890001808900000804000a9
:101cc000600c9800a80c90000900e000110034009e
:101cd00009057800e28f5400010036002a00200038
:101ce000c80190000a017800ec805700580090006d
:101cf00003000100500498000000e000450032009d
:101d0000680890000a004000600c98008a84540023
:101d1000edff3700380990000200e0000e003400ab
:101d2000e80090001808900080804000c8019000f2
:101d30005800900003000100500498008080eb00e0
:101d40000000e00034003200e808900038089000fd
:101d500000804000600c9800c80c90000900e00072
:101d60001100340009057800e28f540001003600ac
:101d70002a002000c80190000a017800ec8057007a
:101d80005800900003000100500498000000e0009b
:101d900020003200680890000a004000600c9800a3
:101da0008a845400edff3700081090008000eb009b
:101db0000028a300180032000b00e00016003400d9
:101dc0008b04780009057800e28f5400010036008a
:101dd0002a002000c80190000a017800ee80570018
:101de0005800900003000100500498000000e0003b
:101df00008003200680890000a004000600c98005b
:101e00008a8454004240a900eeff3c008000eb00b1
:101e1000010037008080eb00010078004f06780059
:101e20004f05be004f04be000080fa00000006000f
:101e30000108780000000600839f68000100e000b0
:101e400002003d0060001000e08018000300e00088
:101e500002003d0060011100e081190095fb0700c0
:101e60004f00e00002003b0060001000e08018001e
:101e700000000600889fbe008a9fbe00300442001a
:101e8000b0844a0030054b0090854b006000b100e3
:101e90000898be000a90be000440e10005c8e100b9
:101ea00006d0e10007d8e1000200310068004000e0
:101eb0001008e8004f05be004f04be0000000600f9
:101ec000889fbe008a9fbe003004be002005be0071
:101ed0000418540005985c0006185d0007985d0022
:101ee000110020000440e10005c8e10006d0e10037
:101ef00007d8e100010039008000eb0010881000d5
:101f00004f05be004f04be00000006001200fa009c
:101f1000889fbe008a9fbe008c9fbe00e0b79f00d6
:101f2000f1b79f0082bf9f0093bf9f000605be00d0
:101f30000404be000000eb00d0b79f00c0b79f00b4
:101f4000b0b79f00a0b79f0090b79f000006eb00be
:101f50005fb19700cfb09700820141003fb097007a
:101f60000200e00004003d00370007007e805700bb
:101f7000c0ff070003003700330007007e805700d2
:101f8000cfff0700dfb697000d00e0000c00350022
:101f90006fb29700ffb297000fbb97009fbb9700ef
:101fa00010002000010020006011b8000002720043
:101fb0008182720002037300838373001b00070099
:101fc0000c06e80001042000810f5600e0ff3a00f3
:101fd0000d00e00004003d000802be000a03be0040
:101fe0007e805700a3ff07005fa897000000e00075
:101ff00005003a001fb29700afb297003fb39700b9
:10200000cfb39700090007006fb09700ffb09700ab
:102010000fb997009fb997004f06be004f05be004d
:102020004f04be000080fa00000006000100070017
:1020300000000600a4b79f00b5b79f00c6b79f0079
:10204000d7b79f00000006004f09de0082817100b3
:10205000b3b79f004f01de00818040008280700096
:10206000a1b79f008fb097004f09de00000040002d
:102070000200700090b79f007fa897004f01de001c
:10208000818040008280700081b79f000d000700b2
:102090004f3ade000000400004007000f0af9f00e7
:1020a000080007000402420085824a0006034b0034
:1020b00087834b00dfff07000802be000a03be0053
:1020c000000006002fb29700bfb297004fb39700f1
:1020d000dfb3970000000600881f7800180020007a
:1020e000881f780089ff07008f87e9004f04780078
:1020f00000000600801feb0084ff07008f87e900c7
:1021000000000600889fbe008a9fbe00e00f5000be
:10211000e08f5800e00f5900e08f59000c003d009f
:102120006044b8006055b8000000540081805c0035
:1021300002015d0083815d0018002000150007008a
:1021400008003d00180007000004eb000500370000
:102150000004eb000f00070002003d001200070022
:1021600018002000dcff07000800e0000600320035
:102170006022b8006033b8000000520081805a002d
:1021800002015b0083815b004f05be004f04be006f
:1021900000000600e00f5200e08f5a00e00f5b00e5
:1021a000e08f5b00000006006044b8006055b80096
:1021b0000402540085825c0006035d0087835d0095
:1021c00000000600889fbe008a9fbe008c1f78001a
:1021d000e00f5000e08f5800e00f5900e08f5900e9
:1021e0000d003d006044b8006055b8000000540088
:1021f00081805c0002015d0083815d001c00200085
:102200000820e10009a8e1000ab0e1000bb8e100f4
:102210000d003d00080037000006eb00e00f520003
:10222000e08f5a00e00f5b00e08f5b0006003d008e
:102230006044b8006055b8000402540085825c0018
:1022400006035d0087835d00aaff07000c00e00025
:10225000060032006022b8006033b800000052006f
:1022600081805a0002015b0083815b004f06780089
:0c2270004f05be004f04be000000060039
:020000040000fa
:10227c00000000000000000000000000005f0000f3
:10228c000000000000070000000700000014000020
:10229c007f1400007f140000242a00007f2a000015
:1022ac00122300001308000064620000364900008d
:1022bc00562000005000000008070000030000003a
:1022cc00001c000022410000000000004122000020
:1022dc001c0000002a1c00007f1c00002a080000c3
:1022ec00083e0000080800000000000070300000ec
:1022fc0000080000080800000808000000000000aa
:10230c0060600000002000001008000004020000c3
:10231c003e510000494500003e000000427f000095
:10232c0040000000724900004949000046210000ad
:10233c00414900004d33000018140000127f0000ca
:10234c001027000045450000453900003c4a0000bc
:10235c00494900003141000021110000090700002b
:10236c003649000049490000364600004949000042
:10237c00291e0000000000001400000000000000f6
:10238c00403400000000000000080000142200008f
:10239c00411400001414000014140000004100004b
:1023ac002214000008020000015900000906000078
:1023bc003e4100005d5900004e7c000012110000ef
:1023cc00127c00007f49000049490000363e0000a5
:1023dc0041410000412200007f41000041410000ca
:1023ec003e7f000049490000494100007f09000080
:1023fc0009090000013e000041410000517300003a
:10240c007f080000080800007f000000417f0000ea
:10241c004100000020400000413f0000017f00000f
:10242c0008140000224100007f40000040400000e2
:10243c00407f0000021c0000027f00007f040000af
:10244c00081000007f3e000041410000413e0000aa
:10245c007f09000009090000063e00004151000000
:10246c00215e00007f0900001929000046260000ab
:10247c004949000049320000030100007f010000bf
:10248c00033f000040400000403f00001f200000c0
:10249c00402000001f3f000040380000403f00007b
:1024ac0063140000081400006303000004780000ab
:1024bc000403000061590000494d00004300000076
:1024cc007f410000414100000204000008100000a0
:1024dc002000000041410000417f00000402000088
:1024ec000102000004400000404000004040000099
:1024fc0000020000050200000020000054540000ff
:10250c00384000007f2800004444000038380000a8
:10251c0044440000442800003844000044280000d3
:10252c007f380000545400005418000000080000cc
:10253c007e090000020c0000525200004a3c0000d0
:10254c007f0800000404000078000000447d0000b7
:10255c004000000020400000403d0000007f0000d3
:10256c001028000044000000004100007f400000e3
:10257c00007c000004780000047800007c08000057
:10258c000404000078380000444400004438000083
:10259c007c180000242400001818000024240000db
:1025ac00187c00007c0800000404000008480000af
:1025bc005454000054240000040400003f44000064
:1025cc00243c000040400000207c00001c20000047
:1025dc00402000001c3c000040300000403c00004b
:1025ec004428000010280000444c0000505000000b
:1025fc00503c000044640000544c000044000000b7
:10260c0008360000410000000000000077000000c8
:10261c00000000004136000008000000020100002c
:10262c0002040000024b00006974000063680000a3
:10263c00656e0000206d00006f64000065000000f6
:10264c00414c0000494e0000412000005374000032
:10265c006172000074000000436e0000743a0000c8
:10266c0020250000642000002d3e000020250000e5
:10267c0064000000553a00002025000064000000b2
:10268c00493a000020250000642e0000256400005b
:10269c00005000003a2000002564000000000000fb
:1026ac00000000000000000000000000005f0000bf
:1026bc0000000000000700000007000000140000ec
:1026cc007f1400007f140000242a00007f2a0000e1
:1026dc001223000013080000646200003649000059
:1026ec005620000050000000080700000300000006
:1026fc00001c0000224100000000000041220000ec
:10270c001c0000002a1c00007f1c00002a0800008e
:10271c00083e0000080800000000000070300000b7
:10272c000008000008080000080800000000000075
:10273c00606000000020000010080000040200008f
:10274c003e510000494500003e000000427f000061
:10275c004000000072490000494900004621000079
:10276c00414900004d33000018140000127f000096
:10277c001027000045450000453900003c4a000088
:10278c0049490000314100002111000009070000f7
:10279c00364900004949000036460000494900000e
:1027ac00291e0000000000001400000000000000c2
:1027bc00403400000000000000080000142200005b
:1027cc004114000014140000141400000041000017
:1027dc002214000008020000015900000906000044
:1027ec003e4100005d5900004e7c000012110000bb
:1027fc00127c00007f49000049490000363e000071
:10280c0041410000412200007f4100004141000095
:10281c003e7f000049490000494100007f0900004b
:10282c0009090000013e0000414100005173000005
:10283c007f080000080800007f000000417f0000b6
:10284c004100000020400000413f0000017f0000db
:10285c0008140000224100007f40000040400000ae
:10286c00407f0000021c0000027f00007f0400007b
:10287c00081000007f3e000041410000413e000076
:10288c007f09000009090000063e000041510000cc
:10289c00215e00007f090000192900004626000077
:1028ac004949000049320000030100007f0100008b
:1028bc00033f000040400000403f00001f2000008c
:1028cc00402000001f3f000040380000403f000047
:1028dc006314000008140000630300000478000077
:1028ec000403000061590000494d00004300000042
:1028fc007f4100004141000002040000081000006c
:10290c002000000041410000417f00000402000053
:10291c000102000004400000404000004040000064
:10292c0000020000050200000020000054540000ca
:10293c00384000007f280000444400003838000074
:10294c00444400004428000038440000442800009f
:10295c007f38000054540000541800000008000098
:10296c007e090000020c0000525200004a3c00009c
:10297c007f0800000404000078000000447d000083
:10298c004000000020400000403d0000007f00009f
:10299c001028000044000000004100007f400000af
:1029ac00007c000004780000047800007c08000023
:1029bc00040400007838000044440000443800004f
:1029cc007c180000242400001818000024240000a7
:1029dc00187c00007c08000004040000084800007b
:1029ec005454000054240000040400003f44000030
:1029fc00243c000040400000207c00001c20000013
:102a0c00402000001c3c000040300000403c000016
:102a1c004428000010280000444c000050500000d6
:102a2c00503c000044640000544c00004400000082
:102a3c000836000041000000000000007700000094
:102a4c0000000000413600000800000002010000f8
:082a5c0002040000020000006a
:020000040000fa
:102a64000000fa000428ef000628ef0008003700f1
:102a74000060fe005116800000802000008060008d
:102a84000000e00002003a000428ef000628ef00ee
:102a940022408000334080003006200001002000e6
:102aa400800f5100818f5900f1ff36000080fa0039
:102ab400000006000000fa000060fe0014c8bf0019
:102ac4000004e00034003a006136800000fe2f006c
:102ad40000806000603688001028ef001228ef00a4
:102ae40001003700000000000060fe005116800065
:102af40000402000008060000000e000040032007c
:102b04006016800000c0a000601688000400370032
:102b140061168000f0ff2e000080600060168800bf
:102b24005116800000802000008060000000e0005a
:102b3400040032006016800000d0a00060168800f7
:102b4400e9ff370061168000f0ff2d00008060006f
:102b540060168800824080009340800000d42000ea
:102b640031002000800f5100818f5900ddff3600b5
:102b740010c0b30014e8b7006016800000c0a000c5
:102b8400601688006136800000fe2f00008060001f
:102b94003000b300603688000080fa0000000600b0
:102ba4000400fa00100798009e009000010f7800be
:102bb400abff07001468ef004a68ef001b00370002
:102bc4004ac8bf000080fb001e004000104078008f
:102bd4000080fb0020118800030037000060fe0025
:102be4000028ef000228ef001111800000102000df
:102bf400008060000000e000f8ff320001003700b0
:102c04000060fe0002408000134080005004200059
:102c140001002000800f5100818f5900f8ff360019
:102c24004ac8bf000040e8004ae8b7004ac8bf00ed
:102c3400e54f5000e2ff36000080fa000000060075
:102c44000200fa00000f78001e0078008000eb00fc
:102c5400f203200003002000820f5000838f5800ed
:102c640000013e00006001003f00370040003700d3
:102c74004200370044003700460037004800370060
:102c84004a0037004c0037004e0037005000370030
:102c94005200370054003700560037005800370000
:102ca4005a0037005c0037005e00370060003700d0
:102cb40062003700640037006600370068003700a0
:102cc4006a0037006c0037006e0037007000370070
:102cd4007200370074003700760037007800370040
:102ce4007a0037007c0037007e0037008000370010
:102cf40082003700840037008600370088003700e0
:102d04008a0037008c0037008e00370090003700af
:102d1400920037009400370096003700980037007f
:102d24009a0037009c0037009e003700a00037004f
:102d3400a2003700a4003700a6003700a80037001f
:102d4400aa003700ac003700ae003700b0003700ef
:102d5400b2003700b4003700b6003700b8003700bf
:102d6400ba003700bc00370052ff0700bd0037002f
:102d7400e0c520008aff0700ba00370040c62000e3
:102d840087ff0700b7003700a0c6200084ff0700b4
:102d9400b400370000c7200081ff0700b1003700ee
:102da40060c720007eff0700ae003700c0c72000c8
:102db4007bff0700ab00370020c8200078ff070026
:102dc400a800370080c8200075ff0700a500370061
:102dd400e0c8200072ff0700a200370040c92000ad
:102de4006fff07009f003700a0c920006cff070099
:102df4009c00370000ca200069ff070099003700d3
:102e040060ca200066ff070096003700c0ca200091
:102e140063ff07009300370020cb200060ff07000a
:102e24009000370080cb20005dff07008d00370045
:102e3400e0cb20005aff07008a00370040cc200076
:102e440057ff070087003700a0cc200054ff07007d
:102e54008400370000cd200051ff070081003700b7
:102e640060cd20004eff07007e003700c0cd20005b
:102e74004bff07007b00370020ce200048ff0700ef
:102e84007800370080ce200045ff0700750037002a
:102e9400e0ce200042ff07007200370040cf200040
:102ea4003fff07006f003700a0cf20003cff070062
:102eb4006c00370000d0200039ff0700690037009c
:102ec40060d0200036ff070066003700c0d0200025
:102ed40033ff07006300370020d1200030ff0700d4
:102ee4006000370080d120002dff07005d0037000f
:102ef400e0d120002aff07005a00370040d220000a
:102f040027ff070057003700a0d2200024ff070046
:102f14005400370000d3200021ff07005100370080
:102f240060d320001eff07004e003700c0d32000ee
:102f34001bff07004b00370020d4200018ff0700b8
:102f44004800370080d4200015ff070045003700f3
:102f5400e0d4200012ff07004200370040d52000d3
:102f64000fff07003f003700a0d520000cff07002b
:102f74003c00370000d6200009ff07003900370065
:102f840060d6200006ff070036003700c0d62000b8
:102f940003ff07003300370020d7200000ff07009d
:102fa4003000370080d72000fdfe07002d003700d9
:102fb400e0d72000fafe07002a00370040d820009e
:102fc400f7fe070027003700a0d82000f4fe070012
:102fd4002400370000d92000f1fe0700210037004b
:102fe40060d92000eefe07001e003700c0d9200083
:102ff400ebfe07001b00370020da2000e8fe070084
:103004001800370080da2000e5fe070015003700bd
:10301400e0da2000e2fe07001200370040db200067
:10302400dffe07000f003700a0db2000dcfe0700f6
:103034000c00370000dc2000d9fe0700090037002f
:1030440060dc2000d6fe070006003700c0dc20004c
:10305400d3fe07000300370020dd2000d0fe070068
:10306400000000000080fa00000006000000fa00e2
:1030740021168000f0fe2f000080600020168800da
:103084006136800000fe2f000080600060368800fa
:103094002000200040198800e202070012002000ee
:1030a400a100200090312900640307008902070071
:1030b4000500370000000000030037000000000096
:1030c40001003700000000000060fe00511680007f
:1030d40000402000008060000000e0000400320096
:1030e4006016800000c0a00060168800040037004d
:1030f40061168000f0ff2e000080600060168800da
:103104005116800000802000008060000000e00074
:10311400040032006016800000d0a0006016880011
:103124000400370061168000f0ff2d00008060006d
:103134006016880030c8bf000004e000ddff3200e4
:10314400604180000000e000100032004441800033
:1031540055418000604180008000eb000001be000a
:103164000400be00d2f6070051f607009bf60700e4
:10317400723d2a00030d240064f6070031f60700af
:1031840000007800a0418800010037003428ef00d7
:103194002828ef002a28ef002c28ef003068ef00e1
:1031a4002242800033428000f0352e00610120006d
:1031b400800f5100818f5900c0ff3e00a141800063
:1031c40070072000808f5000beff3e006116800013
:1031d400f0ff2d00008060006016880060168000fb
:1031e40000c0a000601688006136800000fe2f0039
:1031f400008060003000b300603688000080fa0070
:10320400000006000400fa008c0507002116800067
:10321400f0fe2f000080600020168800a201070045
:1032240000502300c100200029060700dc0107002c
:103234007c02070012002000a10020006032290057
:10324400fe0207002302070001003700000000000f
:103254000060fe00511680000080200000806000a5
:103264000000e000f9ff32006016800000d0a000ea
:103274006016880000000000010037000000000014
:103284000060fe00511680000040200000806000b5
:103294000000e000f9ff32006016800000c0a000ca
:1032a400601688000828ef000a28ef0001003700a4
:1032b400000000000060fe00511680000040200065
:1032c400008060000000e00004003200601680000e
:1032d40000c0a0006016880004003700611680005a
:1032e400f0ff2e00008060006016880051168000f8
:1032f40000802000008060000000e0000400320034
:103304006016800000d0a00060168800e9ff370036
:1033140061168000f0ff2d000080600060168800b8
:10332400424080005340800000d42000310020003f
:10333400800f5100818f5900ddff36006136800017
:1033440000fe2f00008060003000b300603688006b
:103354000828ef000a28ef002023a8000100370006
:10336400000000002242800033428000f0352e002d
:1033740061012000800f5100818f59000800360040
:103384001828ef003e68ef0000362e00610120008f
:10339400204288003142880034ff070033003700a0
:1033a400b04080000000e00030003200c0408000e7
:1033b4000000e0002d003a00b140800030022000ff
:1033c4000088b90000007800c0408800c040800038
:1033d4008000d100b04721000008b8000100d100ee
:1033e400004078003ee8b7003ec8bf008080fb0084
:1033f400200320000088b90000007800000f780046
:10340400f01820009e007800808f500002003e00db
:103414003e68ef001500370001e72f001e804000d2
:103424008000d100b04721000008b8000100d1009d
:10343400004078000040e8003ee8b700c04080004b
:103444001e005000f90f500008003600e1832000f0
:1034540091407800e0c3b30080cf500003003e00e9
:103464003ec8bf000040e8003ee8b7003ec8bf00c9
:103474000080fb00f2fd0700201680000040a00041
:10348400201688006240800073408000f0692800a4
:1034940011002000800f5100818f59004200360036
:1034a400e0010700c14080003ec8bf000080fb006f
:1034b400811f7800801f780020332900801f780046
:1034c400a0df200088f60700e687570012002000de
:1034d400a1002000a0df200058020700d041800096
:1034e400801f780000342900801f7800a0df2000ae
:1034f4007df60700e487570032002000a100200079
:10350400a0df20004d020700e141800040062000ba
:1035140000017800110009008280d8008000fd00bd
:1035240000017800e0418000c200de00b0472100c5
:103534000008b8000100d100821f7800801f7800c5
:1035440060342900801f7800a0df200066f60700a1
:10355400e687570042002000a1002000a0df2000e1
:1035640036020700b0418000801f7800f034290043
:10357400801f7800a0df20005bf60700e487570077
:1035840062002000a1002000a0df20002b02070021
:103594004868ef004f01070010c0b30048e8b700c7
:1035a4000c28ef000e28ef004240800053408000ba
:1035b4000042800011428000800f5100818f590029
:1035c4005500390050168000640060000000e000df
:1035d40051003200b1418000c040800000805000a2
:1035e40000f0a7000000ea00100798001e009000f9
:1035f400ef0f50001f003600b1418000c040800032
:10360400808f50000d003100e1832000914078004c
:10361400e0c3b30080cf500008003e00b1418000f9
:10362400c0418000808f500004003e003ec8bf00af
:103634000040e8003ee8b7000e003700c1408000bb
:10364400b0418000808f50000a0031003ec8bf00a6
:10365400e24f500007003600b1418000c0418000b5
:10366400808f5000030039003ec8bf000040e900cd
:103674003ee8b7001e0090008000eb00429c200052
:103684000289b900020178006002b900840178005f
:1036940003014100439c20000300b80001014100e4
:1036a40082007800004288001142880002428000b3
:1036b4001342800000d4200031002000800f51000c
:1036c400818f59000500360000d42000310020000d
:1036d40000428800114288000b003700024280003b
:1036e40013428000701a260001002000800f510050
:1036f400818f590004003e00801a2600010020003a
:103704000042880011428800b0418000c041880016
:103714000828ef000a28ef0030c8bf000004e000ca
:103724000fff32001ec8bf000004e0002300320077
:10373400304180000000e00010003200144180009d
:1037440025418000304180008000eb000001be0074
:103754000400be0056f50700d5f407001ff5070066
:10376400e27a240013f62300e8f40700b5f4070016
:103774000000780090418800010037003228ef00f3
:103784002228ef002428ef002628ef002000200044
:10379400401988001e68ef00d1418000d0418000ac
:1037a4000000d10080805000904180000000d100d2
:1037b40000804000d041880028003700604180002c
:1037c4000000e000100032004441800055418000b8
:1037d400604180008000eb000001be000400be00d8
:1037e40033f50700b2f40700fcf40700723d2a0029
:1037f400030d2400c5f4070092f4070000007800cc
:10380400a0418800010037003428ef002828ef0089
:103814002a28ef002c28ef0010002000401988000f
:1038240010c0b3001ee8b700a0418000e90f5000ab
:1038340009003600e1418000e04180000000d10031
:1038440080805000a04180000000d1000080400032
:10385400e0418800010037003c28ef00d04180009f
:103864006101b800e04180008000eb00009ab900db
:1038740004027800028bb900860278000502420037
:103884000010b800010242008400780042062000c3
:103894000300200006f5070000007800b04188000e
:1038a4003068ef00affe37000000fa00500220003d
:1038b4002010880007e2a8000080fa00000006003b
:1038c4000200fa000000eb00000f78000602a800d6
:1038d40004003700400620009e007800808f5000ce
:1038e40005003e0030108000610060000000e00030
:1038f400f8ff3a0001003700000000000080fa00e1
:10390400000006000200fa000000eb00000f78003f
:1039140006a2a8000642a8000400370040062000c2
:103924009e007800808f500005003e00301080001b
:10393400640060000000e000f8ff3a000100370076
:10394400000000000080fa00000006000400fa00f5
:10395400204798000000eb00000f78002e409000f4
:103964000000fb001010880004003700400620000f
:103974009e007800808f500006003e0041108000b9
:1039840000002400008060000000e000f7ff3a001f
:1039940001003700000000000080fa00000006006b
:1039a4000000fa00e0cab3003200070050cdb300b3
:1039b4003000070000c8b3002e00070080cab3001f
:1039c4002c000700f0c3b3002a00070030cdb30079
:1039d400280007000040eb002600070000c4b300e5
:1039e40024000700d0c8b3002200070040c1b30080
:1039f4002000070000c2b3001e0007000040eb00d7
:103a04001c00070010cab3001a00070080ccb300e2
:103a140018000700a0cdb3001600070020c1b300b2
:103a24001400070010c8b30012000700f0ccb30064
:103a34001000070090cdb3000e00070010cfb300b4
:103a44000c000700b0cdb3000a00070000c4b300a7
:103a54000800070040cab3000600070060cab300ac
:103a640004000700f0cab300020007000080fa0057
:103a7400000006000200fa00004f780090ff0700e3
:103a84004ec8bf00b1ff07000040eb00afff0700c6
:103a94001e407800adff07009aff07000080fa007f
:103aa400000006000200fa00004f780084ff0700bf
:103ab4004ec8bf00a5ff070000c4b300a3ff070062
:103ac4001e407800a1ff07008eff07000080fa0067
:103ad400000006001000fa000004200040079800cf
:103ae40040082000500798000000eb006007980091
:103af40020002000700798004e0090004300de0074
:103b0400400798005e0090004300de0050079800d4
:103b14000000eb00000f78000000eb003007980075
:103b24000040eb00d3ff070000c1b300d1ff070042
:103b340000c4b300cfff07000000eb00100798009b
:103b4400320037001e009000804078006e00900024
:103b54000040780080c0400000cbb30000c04000ab
:103b6400c4ff07007e009000004078006f406000b2
:103b7400c0ff07007e0090004400de000040780093
:103b84000044a000bbff07000000eb0020079800e2
:103b9400180037004aff07004ec8bf006bff07003c
:103ba40000c4b30069ff07000000eb003007980071
:103bb40008003700808520001e0040001040780077
:103bc40062ff07003e0090000000e8003007980004
:103bd4001e0fe800be0090005e009000808f500031
:103be400f4ff390047ff07002e0090000000e800b2
:103bf400200798002e009000e70f5000e5ff3600e4
:103c04001e0090000000e800100798009e0090003d
:103c14004e009000808f5000caff39000080fa00e7
:103c2400000006000000fa00024020008000eb00c3
:103c3400808520009ef407000080fa000000060042
:103c44000000fa0070cab3008aff07000080fa007f
:103c5400000006000200fa00004f780011479800a7
:103c640060c2b30083ff07000040eb0081ff070040
:103c74001e4078007fff07000040eb007dff070037
:103c84001e4090007bff07000040eb0079ff070017
:103c940000c0eb0077ff0700f0c2b30075ff070018
:103ca4000080fa00000006000200fa00004f7800cd
:103cb4001147980070c2b3006eff07000040eb008c
:103cc4006cff07001e4078006aff07000040eb000d
:103cd40068ff07001e40900066ff07000040eb00ed
:103ce40064ff070000c0eb0062ff0700f0c2b300ee
:103cf40060ff07000080fa00000006000000fa00e0
:103d0400e0c2b3005bff07000080fa000000060079
:103d14000a00fa002007980031079800024f980023
:103d2400be00900070002800008060000000e000e9
:103d340004003d000000e90081ff2f0000807000b6
:103d44000000e800004f78001e00fb00be00900059
:103d540000805000c300dd002e0090000080400071
:103d640010079800818520001e009000008040000c
:103d7400904078000e4890000080fb000000ea00ac
:103d84004f00de00000178001e00fb000010dd0083
:103d94000040780080c07000828520001e009000e2
:103da40000004100014878000080fa00000006008d
:103db4000c00fa00604798004107980052079800e9
:103dc4006e4090000000fb006500b9000000780020
:103dd400000ab100100798005e009000c700dd00e3
:103de4004e00900000804000200798000040eb0047
:103df400004f78000c0037009e00fb002e0090005e
:103e0400008040001e01fb009e00900081004100e4
:103e140062352900e2c078000141780081852000e4
:103e2400827078001e4fe8001e407800e44f500076
:103e3400f1ff34000080fa00000006000e00fa00d2
:103e44004007980051079800620798000000eb00b3
:103e5400000f78001e007800ce0090000080400023
:103e640090407800214798001e0fe800de00900083
:103e740021079800ee0090003107980014003700e5
:103e84003e019000ae0090002e409000c8ff070055
:103e9400ae009000e0072000808f50000300340043
:103ea4003e0090000000e800300798002e009000cb
:103eb40066004000200798001e007800ce009000a5
:103ec4000080400090407800214798001e0fe800d1
:103ed4002e4090000004e000e9ff3a000080fa0060
:103ee400000006000800fa00008fbe0022079800b8
:103ef400330798001e01be0090002000010020003e
:103f0400800f5100818f590016003e001e0078007a
:103f1400004078000043b0008040780020852000f5
:103f2400014878003085200001c2b30001487800c0
:103f34004085200001c2b30001487800508520006c
:103f440001c2b300014878006085200001c2b300bb
:103f540001487800708520008040eb00014878001b
:103f6400cc00370030062000010020001e01be00f6
:103f7400800f5100818f59001f003e001e00be00bb
:103f8400a20020000300200049f30700004078004d
:103f94000043b0008040780020852000014878006c
:103fa4001e00be00a20020000300200050f3070002
:103fb400004078000043b000804078003085200045
:103fc400014878004085200001c2b3000148780010
:103fd4005085200001c2b3000148780060852000ac
:103fe40001c2b30001487800708520008040eb00d6
:103ff40001487800a7003700703e2000010020002f
:104004001e01be00800f5100818f590028003e0020
:104014001e00be00420620000300200024f3070017
:10402400004078000043b0008040780020852000e4
:10403400014878001e00be00a200200003002000fa
:104044001bf30700a20020000300200028f3070050
:10405400004078000043b0008040780030852000a4
:10406400014878001e00be00a200200003002000ca
:104074001ff30700004078000043b0008040780040
:1040840040852000014878005085200001c2b3001b
:10409400014878006085200001c2b300014878001f
:1040a400708520008040eb000148780079003700db
:1040b400f0702200010020001e01be00800f51009c
:1040c400818f590031003e001e00be00823e200058
:1040d40003002000f6f20700004078000043b0001f
:1040e4008040780020852000014878001e00be0032
:1040f4004206200003002000edf20700a200200089
:1041040003002000faf20700004078000043b000ea
:104114008040780030852000014878001e00be00f1
:10412400a200200003002000e1f20700a20020000a
:1041340003002000eef20700004078000043b000c6
:104144008040780040852000014878001e00be00b1
:10415400a200200003002000e5f2070000407800e0
:104164000043b0008040780050852000014878006a
:104174006085200001c2b3000148780070852000ea
:104184008040eb000148780042003700f0692800c5
:10419400110020001e01be00800f5100818f5900c4
:1041a40003003600f069280011002000008fbe00d3
:1041b4001e00be000271220003002000bcf20700b2
:1041c400004078000043b000804078002085200043
:1041d400014878001e00be00823e2000030020003b
:1041e400b3f20700a200200003002000c0f2070081
:1041f400004078000043b000804078003085200003
:10420400014878001e00be00420620000300200082
:10421400a7f20700a200200003002000b4f2070068
:10422400004078000043b0008040780040852000c2
:10423400014878001e00be00a200200003002000f8
:104244009bf20700a200200003002000a8f2070050
:10425400004078000043b000804078005085200082
:10426400014878001e00be00a200200003002000c8
:104274009ff20700004078000043b00080407800bf
:104284006085200001487800708520008040eb00a4
:10429400014878003e019000ae0090002085200087
:1042a400e6fe07000080fa00000006000800fa009d
:1042b400008fbe0022079800330798001e01be003d
:1042c4009000200001002000800f5100818f5900d0
:1042d4000a003e001e007800004078000043b00051
:1042e4008040780020852000014878003085200037
:1042f4008040eb0001487800150037001e00be0026
:10430400a20020000300200069f2070000407800aa
:104314000043b000804078002085200001487800e8
:104324001e00be00a20020000300200070f207005f
:10433400004078000043b0008040780030852000c1
:1043440001487800408520008040eb000148780057
:104354003e019000ae00900020852000b7fe0700cb
:104364000080fa00000006000800fa00008fbe007a
:1043740022079800330798001e01be009000200019
:1043840001002000800f5100818f590013003e006e
:104394001e007800004078000043b00080407800a0
:1043a40020852000014878003085200001c6b30034
:1043b400014878004085200001c2b300014878001c
:1043c4005085200001c2b3000148780060852000b8
:1043d4008040eb00014878004f0037003006200091
:1043e400010020001e01be00800f5100818f590082
:1043f4001c003e001e00be00a2002000030020009e
:104404002bf20700004078000043b00080407800a1
:1044140020852000014878001e00be00a200200074
:104424000300200032f20700004078000043b0008f
:1044340080407800308520000148780040852000c5
:1044440001c6b300014878005085200001c2b300c2
:1044540001487800608520008040eb000148780026
:104464002d003700703e2000010020001e01be0018
:10447400800f5100818f590003003600703e2000e8
:1044840001002000008fbe001e00be004206200076
:104494000300200006f20700004078000043b0004b
:1044a4008040780020852000014878001e00be006e
:1044b400a200200003002000fdf10700a20020005c
:1044c400030020000af20700004078000043b00017
:1044d4008040780030852000014878001e00be002e
:1044e400a20020000300200001f207000040780031
:1044f4000043b000804078004085200001487800e7
:104504005085200001c6b300014878006085200072
:104514008040eb00014878003e019000ae0090001e
:104524002085200045fe07000080fa0000000600f8
:020000040000fa
:10453400fa0d000020000000000000004a080000fe
:1045440002000000000000001a0e0000200000001d
:10455400000000004c0800000200000002000000ff
:10456400ffff0000520800000604000000000000e5
:104574004e08000002000000020000007800000065
:10458400580c000080010000020000005dc017000c
:1045940080008f005dc09700e0b088005dc0980087
:1045a400e0b089005dc09900e0b08a005dc09a0067
:1045b400e0b08b005dc09b00e0b08c005dc09c004f
:1045c400e0b08d005dc09d00e0b08e005dc09e0037
:1045d400e0b08f005dc09f00e0b080005dc0a0002f
:1045e400e0b082005dc0a100e0b083005dc0a20025
:1045f400e0b084005dc0a300e0b085005dc0a4000d
:10460400e0b086005dc0a500e0b087005dc0a600f4
:10461400e0b088005dc0a700e0b089005dc0a800dc
:10462400e0b08a005dc0a900e0b08b005dc0aa00c4
:10463400e0b08c005dc0ab00e0b08d005dc0ac00ac
:10464400e0b08e005dc0ad00e0b08f005dc0ae0094
:10465400e0b080005dc0af00e0b081005dc0b0009c
:10466400e0b083005dc0b100e0b084005dc0b20082
:10467400e0b085005dc0b300e0b086005dc0b4006a
:10468400e0b087005dc0b500e0b088005dc0b60052
:10469400e0b089005dc0b700e0b08a005dc0b8003a
:1046a400e0b08b005dc0b900e0b08c005dc0ba0022
:1046b400e0b08d005dc0bb00e0b08e005dc0bc000a
:1046c400e0b08f005dc0bd00e0b080005dc0be0002
:1046d400e0b081005dc0bf00e0b082005dc0c000fa
:1046e400e0b084005dc0c100e0b085005dc0c200e0
:1046f400e0b086005dc0c300e0b087005dc0c400c8
:10470400e0b088005dc0c500e0b089005dc0c600af
:10471400e0b08a005dc0c700e0b08b005dc0c80097
:10472400e0b08c005dc0c900e0b08d005dc0ca007f
:10473400e0b08e005dc0cb00e0b08f005dc0cc0067
:10474400e0b080005dc0cd00e0b081005dc0ce006f
:10475400e0b082005dc0cf00e0b083005dc0d00057
:10476400e0b085005dc0d100e0b086005dc0d2003d
:10477400e0b087005dc0d300e0b088005dc0d40025
:10478400e0b089005dc0d500e0b08a00540e00009e
:1047940014000000000000000008000040000000b9
:1047a40000000000400800000a00000002000000b1
:1047b400400d03000060e30016000100000000004b
:1047c4005008000002000000000000003a0e000043
:1047d4001a00000002000000686a6c00747a4c0041
:1047e40000000100000200000400080000100000a6
:1047f400000020002b2d230030000000d80d000005
:104804002200000002000000303132003334350051
:1048140036373800394142004344450046003000f1
:104824003132330034353600373839006162630081
:0c48340064656600000000000000000049
:020000040000fa
:104840000000fa0042000700c422ef00cc22ef0073
:10485000f0fe2f0000168800f0ff2c0040168800a4
:10486000000c2000400388006a20ef00c622ef0001
:10487000ce22ef0090e32900601988002002a900f1
:104880000111800090ff2f0000806000001188005f
:1048900020a2a90001118000f0cf2f00008060004d
:1048a000001188002162a9002062a800f007200002
:1048b0004011880023a2a90023e2a9001111800061
:1048c000f0f32f00008060001011880021e2a800a2
:1048d0002222ef002342a8002222a9003002a900d0
:1048e0008111800090ff2f000080600080118800ff
:1048f00030a2a90081118000f0cf2f00008060005d
:10490000801188003162a8003062a800001a2000df
:10491000c011880033a2a90033e2a90091118000e0
:10492000f0f32f00008060009011880031e2a800b1
:104930003222ef003342a8003222a9001100070002
:1049400021000700450007000080fa000000060073
:104950000000fa000001eb00600420007105200057
:1049600023742000804978008149780082497800ca
:1049700000102300203a88004827ef000080fa004a
:10498000000006000000fa00113a8000f0fb2f0042
:104990000081600060042000710520002374200065
:1049a000804978008149780082497800313580005b
:1049b00000fe2f00008060000020a000303588003d
:1049c0000080fa00000006000000fa000000280045
:1049d000200888009460a8008460a9002105800058
:1049e000f0ff2800808060000000250001007000ba
:1049f00020058800000a2000100888008c20a900eb
:104a000021068000f0f82f00008060000060a00008
:104a1000200688009c20a8008c40a9002106800068
:104a2000f08f2f000080600000a0a000200688000a
:104a30009c40a80087c0a90091058000f08f2f003e
:104a40008080600000302000010070009005880028
:104a500097c0a8000080fa00000006000000fa00dd
:104a600010002000401988003023ef00f0e0210002
:104a7000201988002223ef00000e20000019880072
:104a800021e3a80085a0a90051058000f0f82f00bf
:104a9000008060000050a0005005880095a0a8008c
:104aa0000080fa0000000600000f78009e007800e9
:104ab00061428800ffff37000000fa00a0e12000fb
:104ac0008007780020e32000000188000080fa00c1
:044ad00000000600dc
:020000040000fa
:104ad400f03fb1000180b10006003500ee0309008b
:104ae40000000000403fb1000180b100fbff3d0029
:104af4001000b000203fb000020035000080090023
:084b04000000000000000600a3
:020000040000fa
:020000040001f9
:0457f8009dfb000015
:020000040000fa
:020000040001f9
:0457fc00791f000011
:00000001FF
